{
  "_format": "hh-sol-artifact-1",
  "contractName": "Create",
  "sourceName": "contracts/VotingContract.sol",
  "abi": [
    {
      "inputs": [],
      "stateMutability": "nonpayable",
      "type": "constructor"
    },
    {
      "anonymous": false,
      "inputs": [
        {
          "indexed": true,
          "internalType": "uint256",
          "name": "candidateId",
          "type": "uint256"
        },
        {
          "indexed": false,
          "internalType": "string",
          "name": "age",
          "type": "string"
        },
        {
          "indexed": false,
          "internalType": "string",
          "name": "name",
          "type": "string"
        },
        {
          "indexed": false,
          "internalType": "string",
          "name": "image",
          "type": "string"
        },
        {
          "indexed": false,
          "internalType": "uint256",
          "name": "voteCount",
          "type": "uint256"
        },
        {
          "indexed": false,
          "internalType": "address",
          "name": "_address",
          "type": "address"
        },
        {
          "indexed": false,
          "internalType": "string",
          "name": "ipfs",
          "type": "string"
        }
      ],
      "name": "CandidateCreate",
      "type": "event"
    },
    {
      "anonymous": false,
      "inputs": [
        {
          "indexed": false,
          "internalType": "uint256",
          "name": "voter_voterId",
          "type": "uint256"
        },
        {
          "indexed": false,
          "internalType": "string",
          "name": "voter_name",
          "type": "string"
        },
        {
          "indexed": false,
          "internalType": "string",
          "name": "voter_image",
          "type": "string"
        },
        {
          "indexed": false,
          "internalType": "address",
          "name": "voter_address",
          "type": "address"
        },
        {
          "indexed": false,
          "internalType": "uint256",
          "name": "voter_allowed",
          "type": "uint256"
        },
        {
          "indexed": false,
          "internalType": "bool",
          "name": "voter_voted",
          "type": "bool"
        },
        {
          "indexed": false,
          "internalType": "uint256",
          "name": "voter_vote",
          "type": "uint256"
        },
        {
          "indexed": false,
          "internalType": "string",
          "name": "voter_ipfs",
          "type": "string"
        }
      ],
      "name": "VoterCreated",
      "type": "event"
    },
    {
      "inputs": [
        {
          "internalType": "address",
          "name": "_address",
          "type": "address"
        }
      ],
      "name": "Voterdata",
      "outputs": [
        {
          "internalType": "uint256",
          "name": "",
          "type": "uint256"
        },
        {
          "internalType": "string",
          "name": "",
          "type": "string"
        },
        {
          "internalType": "string",
          "name": "",
          "type": "string"
        },
        {
          "internalType": "address",
          "name": "",
          "type": "address"
        },
        {
          "internalType": "string",
          "name": "",
          "type": "string"
        },
        {
          "internalType": "uint256",
          "name": "",
          "type": "uint256"
        },
        {
          "internalType": "bool",
          "name": "",
          "type": "bool"
        }
      ],
      "stateMutability": "view",
      "type": "function"
    },
    {
      "inputs": [],
      "name": "_candidateId",
      "outputs": [
        {
          "internalType": "uint256",
          "name": "_value",
          "type": "uint256"
        }
      ],
      "stateMutability": "view",
      "type": "function"
    },
    {
      "inputs": [],
      "name": "_voterId",
      "outputs": [
        {
          "internalType": "uint256",
          "name": "_value",
          "type": "uint256"
        }
      ],
      "stateMutability": "view",
      "type": "function"
    },
    {
      "inputs": [
        {
          "internalType": "uint256",
          "name": "",
          "type": "uint256"
        }
      ],
      "name": "candidateAddress",
      "outputs": [
        {
          "internalType": "address",
          "name": "",
          "type": "address"
        }
      ],
      "stateMutability": "view",
      "type": "function"
    },
    {
      "inputs": [
        {
          "internalType": "address",
          "name": "",
          "type": "address"
        }
      ],
      "name": "candidates",
      "outputs": [
        {
          "internalType": "uint256",
          "name": "candidateId",
          "type": "uint256"
        },
        {
          "internalType": "string",
          "name": "age",
          "type": "string"
        },
        {
          "internalType": "string",
          "name": "name",
          "type": "string"
        },
        {
          "internalType": "string",
          "name": "image",
          "type": "string"
        },
        {
          "internalType": "uint256",
          "name": "voteCount",
          "type": "uint256"
        },
        {
          "internalType": "address",
          "name": "_address",
          "type": "address"
        },
        {
          "internalType": "string",
          "name": "ipfs",
          "type": "string"
        }
      ],
      "stateMutability": "view",
      "type": "function"
    },
    {
      "inputs": [],
      "name": "getCandidate",
      "outputs": [
        {
          "internalType": "address[]",
          "name": "",
          "type": "address[]"
        }
      ],
      "stateMutability": "view",
      "type": "function"
    },
    {
      "inputs": [
        {
          "internalType": "address",
          "name": "_address",
          "type": "address"
        }
      ],
      "name": "getCandidateData",
      "outputs": [
        {
          "internalType": "string",
          "name": "",
          "type": "string"
        },
        {
          "internalType": "string",
          "name": "",
          "type": "string"
        },
        {
          "internalType": "uint256",
          "name": "",
          "type": "uint256"
        },
        {
          "internalType": "string",
          "name": "",
          "type": "string"
        },
        {
          "internalType": "uint256",
          "name": "",
          "type": "uint256"
        },
        {
          "internalType": "string",
          "name": "",
          "type": "string"
        },
        {
          "internalType": "address",
          "name": "",
          "type": "address"
        }
      ],
      "stateMutability": "view",
      "type": "function"
    },
    {
      "inputs": [],
      "name": "getCandidateLength",
      "outputs": [
        {
          "internalType": "uint256",
          "name": "",
          "type": "uint256"
        }
      ],
      "stateMutability": "view",
      "type": "function"
    },
    {
      "inputs": [],
      "name": "getVotedVoterList",
      "outputs": [
        {
          "internalType": "address[]",
          "name": "",
          "type": "address[]"
        }
      ],
      "stateMutability": "view",
      "type": "function"
    },
    {
      "inputs": [],
      "name": "getVoterLength",
      "outputs": [
        {
          "internalType": "uint256",
          "name": "",
          "type": "uint256"
        }
      ],
      "stateMutability": "view",
      "type": "function"
    },
    {
      "inputs": [],
      "name": "getVoterList",
      "outputs": [
        {
          "internalType": "address[]",
          "name": "",
          "type": "address[]"
        }
      ],
      "stateMutability": "view",
      "type": "function"
    },
    {
      "inputs": [
        {
          "internalType": "address",
          "name": "_address",
          "type": "address"
        },
        {
          "internalType": "string",
          "name": "_name",
          "type": "string"
        },
        {
          "internalType": "string",
          "name": "_age",
          "type": "string"
        },
        {
          "internalType": "string",
          "name": "_image",
          "type": "string"
        },
        {
          "internalType": "string",
          "name": "_ipfs",
          "type": "string"
        }
      ],
      "name": "setCandidate",
      "outputs": [],
      "stateMutability": "nonpayable",
      "type": "function"
    },
    {
      "inputs": [
        {
          "internalType": "address",
          "name": "_candidateaddress",
          "type": "address"
        },
        {
          "internalType": "uint256",
          "name": "_candidateVoteId",
          "type": "uint256"
        }
      ],
      "name": "vote",
      "outputs": [],
      "stateMutability": "nonpayable",
      "type": "function"
    },
    {
      "inputs": [
        {
          "internalType": "uint256",
          "name": "",
          "type": "uint256"
        }
      ],
      "name": "votedVoters",
      "outputs": [
        {
          "internalType": "address",
          "name": "",
          "type": "address"
        }
      ],
      "stateMutability": "view",
      "type": "function"
    },
    {
      "inputs": [
        {
          "internalType": "address",
          "name": "_address",
          "type": "address"
        },
        {
          "internalType": "string",
          "name": "_name",
          "type": "string"
        },
        {
          "internalType": "string",
          "name": "_image",
          "type": "string"
        },
        {
          "internalType": "string",
          "name": "_ipfs",
          "type": "string"
        }
      ],
      "name": "voterRight",
      "outputs": [],
      "stateMutability": "nonpayable",
      "type": "function"
    },
    {
      "inputs": [
        {
          "internalType": "address",
          "name": "",
          "type": "address"
        }
      ],
      "name": "voters",
      "outputs": [
        {
          "internalType": "uint256",
          "name": "voter_voterId",
          "type": "uint256"
        },
        {
          "internalType": "string",
          "name": "voter_name",
          "type": "string"
        },
        {
          "internalType": "string",
          "name": "voter_image",
          "type": "string"
        },
        {
          "internalType": "address",
          "name": "voter_address",
          "type": "address"
        },
        {
          "internalType": "uint256",
          "name": "voter_allowed",
          "type": "uint256"
        },
        {
          "internalType": "bool",
          "name": "voter_voted",
          "type": "bool"
        },
        {
          "internalType": "uint256",
          "name": "voter_vote",
          "type": "uint256"
        },
        {
          "internalType": "string",
          "name": "voter_ipfs",
          "type": "string"
        }
      ],
      "stateMutability": "view",
      "type": "function"
    },
    {
      "inputs": [
        {
          "internalType": "uint256",
          "name": "",
          "type": "uint256"
        }
      ],
      "name": "votersAddress",
      "outputs": [
        {
          "internalType": "address",
          "name": "",
          "type": "address"
        }
      ],
      "stateMutability": "view",
      "type": "function"
    },
    {
      "inputs": [],
      "name": "votingOrganizer",
      "outputs": [
        {
          "internalType": "address",
          "name": "",
          "type": "address"
        }
      ],
      "stateMutability": "view",
      "type": "function"
    }
  ],
  "bytecode": "0x6080604052348015600f57600080fd5b5033600260006101000a81548173ffffffffffffffffffffffffffffffffffffffff021916908373ffffffffffffffffffffffffffffffffffffffff1602179055506127dd806100606000396000f3fe608060405234801561001057600080fd5b50600436106101165760003560e01c80638ab66a90116100a2578063b28d92ae11610071578063b28d92ae1461031c578063b9be31521461033a578063c91ec71214610358578063d6449fb814610374578063f7522a83146103aa57610116565b80638ab66a90146102735780638e945685146102a9578063a3ec138d146102c7578063a7388967146102fe57610116565b806343242daa116100e957806343242daa146101bb5780635cc48aa7146101eb5780635f74bbde1461020957806370218b85146102255780637831ffb31461024357610116565b80630361419e1461011b57806305ad45a4146101375780632a466ac7146101555780633a88251a1461018b575b600080fd5b61013560048036038101906101309190611b7c565b6103c8565b005b61013f610641565b60405161014c9190611c50565b60405180910390f35b61016f600480360381019061016a9190611c6b565b61064e565b6040516101829796959493929190611d26565b60405180910390f35b6101a560048036038101906101a09190611ddd565b610a95565b6040516101b29190611e0a565b60405180910390f35b6101d560048036038101906101d09190611ddd565b610ad4565b6040516101e29190611e0a565b60405180910390f35b6101f3610b13565b6040516102009190611e0a565b60405180910390f35b610223600480360381019061021e9190611e25565b610b39565b005b61022d610d00565b60405161023a9190611f23565b60405180910390f35b61025d60048036038101906102589190611ddd565b610d8e565b60405161026a9190611e0a565b60405180910390f35b61028d60048036038101906102889190611c6b565b610dcd565b6040516102a09796959493929190611f45565b60405180910390f35b6102b161104f565b6040516102be9190611f23565b60405180910390f35b6102e160048036038101906102dc9190611c6b565b6110dd565b6040516102f5989796959493929190611feb565b60405180910390f35b6103066112ea565b6040516103139190611c50565b60405180910390f35b6103246112f6565b6040516103319190611f23565b60405180910390f35b610342611384565b60405161034f9190611c50565b60405180910390f35b610372600480360381019061036d919061207e565b611390565b005b61038e60048036038101906103899190611c6b565b6115cb565b6040516103a19796959493929190612169565b60405180910390f35b6103b2611993565b6040516103bf9190611c50565b60405180910390f35b3373ffffffffffffffffffffffffffffffffffffffff16600260009054906101000a900473ffffffffffffffffffffffffffffffffffffffff1673ffffffffffffffffffffffffffffffffffffffff1614610458576040517f08c379a000000000000000000000000000000000000000000000000000000000815260040161044f9061225f565b60405180910390fd5b61046260006119a0565b600061046e60006119b6565b90506000600760008773ffffffffffffffffffffffffffffffffffffffff1673ffffffffffffffffffffffffffffffffffffffff168152602001908152602001600020905060008160040154146104c457600080fd5b60018160040181905550848160010190816104df919061248b565b50838160020190816104f1919061248b565b50858160030160006101000a81548173ffffffffffffffffffffffffffffffffffffffff021916908373ffffffffffffffffffffffffffffffffffffffff1602179055508181600001819055506103e8816006018190555060008160050160006101000a81548160ff02191690831515021790555082816007019081610577919061248b565b506006869080600181540180825580915050600190039060005260206000200160009091909190916101000a81548173ffffffffffffffffffffffffffffffffffffffff021916908373ffffffffffffffffffffffffffffffffffffffff1602179055507ff5f39971dd62d9929e3a9feaa6bb77fe7c7da0001babff8a65a7e51ad0201c198286868985600401548660050160009054906101000a900460ff1687600601548a604051610631989796959493929190611feb565b60405180910390a1505050505050565b6000600680549050905090565b60608060006060600060606000600460008973ffffffffffffffffffffffffffffffffffffffff1673ffffffffffffffffffffffffffffffffffffffff168152602001908152602001600020600101600460008a73ffffffffffffffffffffffffffffffffffffffff1673ffffffffffffffffffffffffffffffffffffffff168152602001908152602001600020600201600460008b73ffffffffffffffffffffffffffffffffffffffff1673ffffffffffffffffffffffffffffffffffffffff16815260200190815260200160002060000154600460008c73ffffffffffffffffffffffffffffffffffffffff1673ffffffffffffffffffffffffffffffffffffffff168152602001908152602001600020600301600460008d73ffffffffffffffffffffffffffffffffffffffff1673ffffffffffffffffffffffffffffffffffffffff16815260200190815260200160002060040154600460008e73ffffffffffffffffffffffffffffffffffffffff1673ffffffffffffffffffffffffffffffffffffffff168152602001908152602001600020600601600460008f73ffffffffffffffffffffffffffffffffffffffff1673ffffffffffffffffffffffffffffffffffffffff16815260200190815260200160002060050160009054906101000a900473ffffffffffffffffffffffffffffffffffffffff16868054610858906122ae565b80601f0160208091040260200160405190810160405280929190818152602001828054610884906122ae565b80156108d15780601f106108a6576101008083540402835291602001916108d1565b820191906000526020600020905b8154815290600101906020018083116108b457829003601f168201915b505050505096508580546108e4906122ae565b80601f0160208091040260200160405190810160405280929190818152602001828054610910906122ae565b801561095d5780601f106109325761010080835404028352916020019161095d565b820191906000526020600020905b81548152906001019060200180831161094057829003601f168201915b50505050509550838054610970906122ae565b80601f016020809104026020016040519081016040528092919081815260200182805461099c906122ae565b80156109e95780601f106109be576101008083540402835291602001916109e9565b820191906000526020600020905b8154815290600101906020018083116109cc57829003601f168201915b505050505093508180546109fc906122ae565b80601f0160208091040260200160405190810160405280929190818152602001828054610a28906122ae565b8015610a755780601f10610a4a57610100808354040283529160200191610a75565b820191906000526020600020905b815481529060010190602001808311610a5857829003601f168201915b505050505091509650965096509650965096509650919395979092949650565b60038181548110610aa557600080fd5b906000526020600020016000915054906101000a900473ffffffffffffffffffffffffffffffffffffffff1681565b60068181548110610ae457600080fd5b906000526020600020016000915054906101000a900473ffffffffffffffffffffffffffffffffffffffff1681565b600260009054906101000a900473ffffffffffffffffffffffffffffffffffffffff1681565b6000600760003373ffffffffffffffffffffffffffffffffffffffff1673ffffffffffffffffffffffffffffffffffffffff16815260200190815260200160002090508060050160009054906101000a900460ff1615610bce576040517f08c379a0000000000000000000000000000000000000000000000000000000008152600401610bc5906125a9565b60405180910390fd5b6000816004015403610c15576040517f08c379a0000000000000000000000000000000000000000000000000000000008152600401610c0c90612615565b60405180910390fd5b60018160050160006101000a81548160ff0219169083151502179055508181600601819055506005339080600181540180825580915050600190039060005260206000200160009091909190916101000a81548173ffffffffffffffffffffffffffffffffffffffff021916908373ffffffffffffffffffffffffffffffffffffffff1602179055508060040154600460008573ffffffffffffffffffffffffffffffffffffffff1673ffffffffffffffffffffffffffffffffffffffff1681526020019081526020016000206004016000828254610cf49190612664565b92505081905550505050565b60606003805480602002602001604051908101604052809291908181526020018280548015610d8457602002820191906000526020600020905b8160009054906101000a900473ffffffffffffffffffffffffffffffffffffffff1673ffffffffffffffffffffffffffffffffffffffff1681526020019060010190808311610d3a575b5050505050905090565b60058181548110610d9e57600080fd5b906000526020600020016000915054906101000a900473ffffffffffffffffffffffffffffffffffffffff1681565b6004602052806000526040600020600091509050806000015490806001018054610df6906122ae565b80601f0160208091040260200160405190810160405280929190818152602001828054610e22906122ae565b8015610e6f5780601f10610e4457610100808354040283529160200191610e6f565b820191906000526020600020905b815481529060010190602001808311610e5257829003601f168201915b505050505090806002018054610e84906122ae565b80601f0160208091040260200160405190810160405280929190818152602001828054610eb0906122ae565b8015610efd5780601f10610ed257610100808354040283529160200191610efd565b820191906000526020600020905b815481529060010190602001808311610ee057829003601f168201915b505050505090806003018054610f12906122ae565b80601f0160208091040260200160405190810160405280929190818152602001828054610f3e906122ae565b8015610f8b5780601f10610f6057610100808354040283529160200191610f8b565b820191906000526020600020905b815481529060010190602001808311610f6e57829003601f168201915b5050505050908060040154908060050160009054906101000a900473ffffffffffffffffffffffffffffffffffffffff1690806006018054610fcc906122ae565b80601f0160208091040260200160405190810160405280929190818152602001828054610ff8906122ae565b80156110455780601f1061101a57610100808354040283529160200191611045565b820191906000526020600020905b81548152906001019060200180831161102857829003601f168201915b5050505050905087565b606060058054806020026020016040519081016040528092919081815260200182805480156110d357602002820191906000526020600020905b8160009054906101000a900473ffffffffffffffffffffffffffffffffffffffff1673ffffffffffffffffffffffffffffffffffffffff1681526020019060010190808311611089575b5050505050905090565b6007602052806000526040600020600091509050806000015490806001018054611106906122ae565b80601f0160208091040260200160405190810160405280929190818152602001828054611132906122ae565b801561117f5780601f106111545761010080835404028352916020019161117f565b820191906000526020600020905b81548152906001019060200180831161116257829003601f168201915b505050505090806002018054611194906122ae565b80601f01602080910402602001604051908101604052809291908181526020018280546111c0906122ae565b801561120d5780601f106111e25761010080835404028352916020019161120d565b820191906000526020600020905b8154815290600101906020018083116111f057829003601f168201915b5050505050908060030160009054906101000a900473ffffffffffffffffffffffffffffffffffffffff16908060040154908060050160009054906101000a900460ff1690806006015490806007018054611267906122ae565b80601f0160208091040260200160405190810160405280929190818152602001828054611293906122ae565b80156112e05780601f106112b5576101008083540402835291602001916112e0565b820191906000526020600020905b8154815290600101906020018083116112c357829003601f168201915b5050505050905088565b60018060000154905081565b6060600680548060200260200160405190810160405280929190818152602001828054801561137a57602002820191906000526020600020905b8160009054906101000a900473ffffffffffffffffffffffffffffffffffffffff1673ffffffffffffffffffffffffffffffffffffffff1681526020019060010190808311611330575b5050505050905090565b60008060000154905081565b600260009054906101000a900473ffffffffffffffffffffffffffffffffffffffff1673ffffffffffffffffffffffffffffffffffffffff163373ffffffffffffffffffffffffffffffffffffffff1614611420576040517f08c379a00000000000000000000000000000000000000000000000000000000081526004016114179061270a565b60405180910390fd5b61142a60016119a0565b600061143660016119b6565b90506000600460008873ffffffffffffffffffffffffffffffffffffffff1673ffffffffffffffffffffffffffffffffffffffff16815260200190815260200160002090508481600101908161148c919061248b565b508581600201908161149e919061248b565b50818160000181905550838160030190816114b9919061248b565b5060008160040181905550868160050160006101000a81548173ffffffffffffffffffffffffffffffffffffffff021916908373ffffffffffffffffffffffffffffffffffffffff16021790555082816006019081611518919061248b565b506003879080600181540180825580915050600190039060005260206000200160009091909190916101000a81548173ffffffffffffffffffffffffffffffffffffffff021916908373ffffffffffffffffffffffffffffffffffffffff160217905550817fd297f12b256bb8485a6013fb5e302017018123e99a0ebb20756c09e1707b4b9086888785600401548c896040516115ba9695949392919061272a565b60405180910390a250505050505050565b600060608060006060600080600760008973ffffffffffffffffffffffffffffffffffffffff1673ffffffffffffffffffffffffffffffffffffffff16815260200190815260200160002060000154600760008a73ffffffffffffffffffffffffffffffffffffffff1673ffffffffffffffffffffffffffffffffffffffff168152602001908152602001600020600101600760008b73ffffffffffffffffffffffffffffffffffffffff1673ffffffffffffffffffffffffffffffffffffffff168152602001908152602001600020600201600760008c73ffffffffffffffffffffffffffffffffffffffff1673ffffffffffffffffffffffffffffffffffffffff16815260200190815260200160002060030160009054906101000a900473ffffffffffffffffffffffffffffffffffffffff16600760008d73ffffffffffffffffffffffffffffffffffffffff1673ffffffffffffffffffffffffffffffffffffffff168152602001908152602001600020600701600760008e73ffffffffffffffffffffffffffffffffffffffff1673ffffffffffffffffffffffffffffffffffffffff16815260200190815260200160002060040154600760008f73ffffffffffffffffffffffffffffffffffffffff1673ffffffffffffffffffffffffffffffffffffffff16815260200190815260200160002060050160009054906101000a900460ff168580546117e2906122ae565b80601f016020809104026020016040519081016040528092919081815260200182805461180e906122ae565b801561185b5780601f106118305761010080835404028352916020019161185b565b820191906000526020600020905b81548152906001019060200180831161183e57829003601f168201915b5050505050955084805461186e906122ae565b80601f016020809104026020016040519081016040528092919081815260200182805461189a906122ae565b80156118e75780601f106118bc576101008083540402835291602001916118e7565b820191906000526020600020905b8154815290600101906020018083116118ca57829003601f168201915b505050505094508280546118fa906122ae565b80601f0160208091040260200160405190810160405280929190818152602001828054611926906122ae565b80156119735780601f1061194857610100808354040283529160200191611973565b820191906000526020600020905b81548152906001019060200180831161195657829003601f168201915b505050505092509650965096509650965096509650919395979092949650565b6000600380549050905090565b6001816000016000828254019250508190555050565b600081600001549050919050565b6000604051905090565b600080fd5b600080fd5b600073ffffffffffffffffffffffffffffffffffffffff82169050919050565b6000611a03826119d8565b9050919050565b611a13816119f8565b8114611a1e57600080fd5b50565b600081359050611a3081611a0a565b92915050565b600080fd5b600080fd5b6000601f19601f8301169050919050565b7f4e487b7100000000000000000000000000000000000000000000000000000000600052604160045260246000fd5b611a8982611a40565b810181811067ffffffffffffffff82111715611aa857611aa7611a51565b5b80604052505050565b6000611abb6119c4565b9050611ac78282611a80565b919050565b600067ffffffffffffffff821115611ae757611ae6611a51565b5b611af082611a40565b9050602081019050919050565b82818337600083830152505050565b6000611b1f611b1a84611acc565b611ab1565b905082815260208101848484011115611b3b57611b3a611a3b565b5b611b46848285611afd565b509392505050565b600082601f830112611b6357611b62611a36565b5b8135611b73848260208601611b0c565b91505092915050565b60008060008060808587031215611b9657611b956119ce565b5b6000611ba487828801611a21565b945050602085013567ffffffffffffffff811115611bc557611bc46119d3565b5b611bd187828801611b4e565b935050604085013567ffffffffffffffff811115611bf257611bf16119d3565b5b611bfe87828801611b4e565b925050606085013567ffffffffffffffff811115611c1f57611c1e6119d3565b5b611c2b87828801611b4e565b91505092959194509250565b6000819050919050565b611c4a81611c37565b82525050565b6000602082019050611c656000830184611c41565b92915050565b600060208284031215611c8157611c806119ce565b5b6000611c8f84828501611a21565b91505092915050565b600081519050919050565b600082825260208201905092915050565b60005b83811015611cd2578082015181840152602081019050611cb7565b60008484015250505050565b6000611ce982611c98565b611cf38185611ca3565b9350611d03818560208601611cb4565b611d0c81611a40565b840191505092915050565b611d20816119f8565b82525050565b600060e0820190508181036000830152611d40818a611cde565b90508181036020830152611d548189611cde565b9050611d636040830188611c41565b8181036060830152611d758187611cde565b9050611d846080830186611c41565b81810360a0830152611d968185611cde565b9050611da560c0830184611d17565b98975050505050505050565b611dba81611c37565b8114611dc557600080fd5b50565b600081359050611dd781611db1565b92915050565b600060208284031215611df357611df26119ce565b5b6000611e0184828501611dc8565b91505092915050565b6000602082019050611e1f6000830184611d17565b92915050565b60008060408385031215611e3c57611e3b6119ce565b5b6000611e4a85828601611a21565b9250506020611e5b85828601611dc8565b9150509250929050565b600081519050919050565b600082825260208201905092915050565b6000819050602082019050919050565b611e9a816119f8565b82525050565b6000611eac8383611e91565b60208301905092915050565b6000602082019050919050565b6000611ed082611e65565b611eda8185611e70565b9350611ee583611e81565b8060005b83811015611f16578151611efd8882611ea0565b9750611f0883611eb8565b925050600181019050611ee9565b5085935050505092915050565b60006020820190508181036000830152611f3d8184611ec5565b905092915050565b600060e082019050611f5a600083018a611c41565b8181036020830152611f6c8189611cde565b90508181036040830152611f808188611cde565b90508181036060830152611f948187611cde565b9050611fa36080830186611c41565b611fb060a0830185611d17565b81810360c0830152611fc28184611cde565b905098975050505050505050565b60008115159050919050565b611fe581611fd0565b82525050565b600061010082019050612001600083018b611c41565b8181036020830152612013818a611cde565b905081810360408301526120278189611cde565b90506120366060830188611d17565b6120436080830187611c41565b61205060a0830186611fdc565b61205d60c0830185611c41565b81810360e083015261206f8184611cde565b90509998505050505050505050565b600080600080600060a0868803121561209a576120996119ce565b5b60006120a888828901611a21565b955050602086013567ffffffffffffffff8111156120c9576120c86119d3565b5b6120d588828901611b4e565b945050604086013567ffffffffffffffff8111156120f6576120f56119d3565b5b61210288828901611b4e565b935050606086013567ffffffffffffffff811115612123576121226119d3565b5b61212f88828901611b4e565b925050608086013567ffffffffffffffff8111156121505761214f6119d3565b5b61215c88828901611b4e565b9150509295509295909350565b600060e08201905061217e600083018a611c41565b81810360208301526121908189611cde565b905081810360408301526121a48188611cde565b90506121b36060830187611d17565b81810360808301526121c58186611cde565b90506121d460a0830185611c41565b6121e160c0830184611fdc565b98975050505050505050565b7f4f6e6c792074686520766f74696e67206f7267616e697a65722063616e20637260008201527f6561746520766f746572732e0000000000000000000000000000000000000000602082015250565b6000612249602c83611ca3565b9150612254826121ed565b604082019050919050565b600060208201905081810360008301526122788161223c565b9050919050565b7f4e487b7100000000000000000000000000000000000000000000000000000000600052602260045260246000fd5b600060028204905060018216806122c657607f821691505b6020821081036122d9576122d861227f565b5b50919050565b60008190508160005260206000209050919050565b60006020601f8301049050919050565b600082821b905092915050565b6000600883026123417fffffffffffffffffffffffffffffffffffffffffffffffffffffffffffffffff82612304565b61234b8683612304565b95508019841693508086168417925050509392505050565b6000819050919050565b600061238861238361237e84611c37565b612363565b611c37565b9050919050565b6000819050919050565b6123a28361236d565b6123b66123ae8261238f565b848454612311565b825550505050565b600090565b6123cb6123be565b6123d6818484612399565b505050565b5b818110156123fa576123ef6000826123c3565b6001810190506123dc565b5050565b601f82111561243f57612410816122df565b612419846122f4565b81016020851015612428578190505b61243c612434856122f4565b8301826123db565b50505b505050565b600082821c905092915050565b600061246260001984600802612444565b1980831691505092915050565b600061247b8383612451565b9150826002028217905092915050565b61249482611c98565b67ffffffffffffffff8111156124ad576124ac611a51565b5b6124b782546122ae565b6124c28282856123fe565b600060209050601f8311600181146124f557600084156124e3578287015190505b6124ed858261246f565b865550612555565b601f198416612503866122df565b60005b8281101561252b57848901518255600182019150602085019450602081019050612506565b868310156125485784890151612544601f891682612451565b8355505b6001600288020188555050505b505050505050565b7f596f75206861766520616c726561647920766f7465642e000000000000000000600082015250565b6000612593601783611ca3565b915061259e8261255d565b602082019050919050565b600060208201905081810360008301526125c281612586565b9050919050565b7f596f7520617265206e6f7420616c6c6f77656420746f20766f74652e00000000600082015250565b60006125ff601c83611ca3565b915061260a826125c9565b602082019050919050565b6000602082019050818103600083015261262e816125f2565b9050919050565b7f4e487b7100000000000000000000000000000000000000000000000000000000600052601160045260246000fd5b600061266f82611c37565b915061267a83611c37565b925082820190508082111561269257612691612635565b5b92915050565b7f4f6e6c792074686520766f74696e67206f7267616e697a65722063616e20637260008201527f656174652063616e646964617465732e00000000000000000000000000000000602082015250565b60006126f4603083611ca3565b91506126ff82612698565b604082019050919050565b60006020820190508181036000830152612723816126e7565b9050919050565b600060c08201905081810360008301526127448189611cde565b905081810360208301526127588188611cde565b9050818103604083015261276c8187611cde565b905061277b6060830186611c41565b6127886080830185611d17565b81810360a083015261279a8184611cde565b905097965050505050505056fea26469706673582212209d5090dabc3fc7da507e875e82900df02926c3c1bcdc5590b82cc697b37cfce764736f6c634300081c0033",
  "linkReferences": {},
  "deployedLinkReferences": {}
}